{
  "_format": "hh-sol-artifact-1",
  "contractName": "WyvernTokenTransferProxy",
  "sourceName": "contracts/WyvernTokenTransferProxy.sol",
  "abi": [
    {
      "inputs": [
        {
          "internalType": "contract ProxyRegistry",
          "name": "registryAddr",
          "type": "address"
        }
      ],
      "stateMutability": "nonpayable",
      "type": "constructor"
    },
    {
      "inputs": [],
      "name": "registry",
      "outputs": [
        {
          "internalType": "contract ProxyRegistry",
          "name": "",
          "type": "address"
        }
      ],
      "stateMutability": "view",
      "type": "function"
    },
    {
      "inputs": [
        {
          "internalType": "address",
          "name": "token",
          "type": "address"
        },
        {
          "internalType": "address",
          "name": "from",
          "type": "address"
        },
        {
          "internalType": "address",
          "name": "to",
          "type": "address"
        },
        {
          "internalType": "uint256",
          "name": "amount",
          "type": "uint256"
        }
      ],
      "name": "transferFrom",
      "outputs": [
        {
          "internalType": "bool",
          "name": "",
          "type": "bool"
        }
      ],
      "stateMutability": "nonpayable",
      "type": "function"
    }
  ],
  "bytecode": "0x608060405234801561001057600080fd5b506040516102e13803806102e183398101604081905261002f91610054565b600080546001600160a01b0319166001600160a01b0392909216919091179055610084565b60006020828403121561006657600080fd5b81516001600160a01b038116811461007d57600080fd5b9392505050565b61024e806100936000396000f3fe608060405234801561001057600080fd5b50600436106100365760003560e01c806315dacbea1461003b5780637b10399914610063575b600080fd5b61004e6100493660046101a4565b61008e565b60405190151581526020015b60405180910390f35b600054610076906001600160a01b031681565b6040516001600160a01b03909116815260200161005a565b600080546040516369dc9ff360e01b81523360048201526001600160a01b03909116906369dc9ff390602401602060405180830381865afa1580156100d7573d6000803e3d6000fd5b505050506040513d601f19601f820116820180604052508101906100fb91906101ef565b61010457600080fd5b6040516323b872dd60e01b81526001600160a01b0385811660048301528481166024830152604482018490528616906323b872dd906064016020604051808303816000875af115801561015b573d6000803e3d6000fd5b505050506040513d601f19601f8201168201806040525081019061017f91906101ef565b95945050505050565b80356001600160a01b038116811461019f57600080fd5b919050565b600080600080608085870312156101ba57600080fd5b6101c385610188565b93506101d160208601610188565b92506101df60408601610188565b9396929550929360600135925050565b60006020828403121561020157600080fd5b8151801515811461021157600080fd5b939250505056fea26469706673582212207fcd0f2ebffbfe1d7261fe6a3ca8df4ad702c9638837bb90e44c48fb2b99ab0464736f6c634300080b0033",
  "linkReferences": {},
  "deployedLinkReferences": {}
}