{
  "_format": "hh-sol-artifact-1",
  "contractName": "WyvernExchange",
  "sourceName": "contracts/WyvernExchange.sol",
  "abi": [
    {
      "anonymous": false,
      "inputs": [
        {
          "indexed": true,
          "internalType": "bytes32",
          "name": "hash",
          "type": "bytes32"
        },
        {
          "indexed": false,
          "internalType": "address",
          "name": "exchange",
          "type": "address"
        },
        {
          "indexed": true,
          "internalType": "address",
          "name": "maker",
          "type": "address"
        },
        {
          "indexed": false,
          "internalType": "address",
          "name": "taker",
          "type": "address"
        },
        {
          "indexed": false,
          "internalType": "uint256",
          "name": "makerRelayerFee",
          "type": "uint256"
        },
        {
          "indexed": false,
          "internalType": "uint256",
          "name": "takerRelayerFee",
          "type": "uint256"
        },
        {
          "indexed": false,
          "internalType": "uint256",
          "name": "makerProtocolFee",
          "type": "uint256"
        },
        {
          "indexed": false,
          "internalType": "uint256",
          "name": "takerProtocolFee",
          "type": "uint256"
        },
        {
          "indexed": true,
          "internalType": "address",
          "name": "feeRecipient",
          "type": "address"
        },
        {
          "indexed": false,
          "internalType": "enum ExchangeCore.FeeMethod",
          "name": "feeMethod",
          "type": "uint8"
        },
        {
          "indexed": false,
          "internalType": "enum SaleKindInterface.Side",
          "name": "side",
          "type": "uint8"
        },
        {
          "indexed": false,
          "internalType": "enum SaleKindInterface.SaleKind",
          "name": "saleKind",
          "type": "uint8"
        },
        {
          "indexed": false,
          "internalType": "address",
          "name": "target",
          "type": "address"
        }
      ],
      "name": "OrderApprovedPartOne",
      "type": "event"
    },
    {
      "anonymous": false,
      "inputs": [
        {
          "indexed": true,
          "internalType": "bytes32",
          "name": "hash",
          "type": "bytes32"
        },
        {
          "indexed": false,
          "internalType": "enum AuthenticatedProxy.HowToCall",
          "name": "howToCall",
          "type": "uint8"
        },
        {
          "indexed": false,
          "internalType": "bytes",
          "name": "_calldata",
          "type": "bytes"
        },
        {
          "indexed": false,
          "internalType": "bytes",
          "name": "replacementPattern",
          "type": "bytes"
        },
        {
          "indexed": false,
          "internalType": "address",
          "name": "staticTarget",
          "type": "address"
        },
        {
          "indexed": false,
          "internalType": "bytes",
          "name": "staticExtradata",
          "type": "bytes"
        },
        {
          "indexed": false,
          "internalType": "address",
          "name": "paymentToken",
          "type": "address"
        },
        {
          "indexed": false,
          "internalType": "uint256",
          "name": "basePrice",
          "type": "uint256"
        },
        {
          "indexed": false,
          "internalType": "uint256",
          "name": "extra",
          "type": "uint256"
        },
        {
          "indexed": false,
          "internalType": "uint256",
          "name": "listingTime",
          "type": "uint256"
        },
        {
          "indexed": false,
          "internalType": "uint256",
          "name": "expirationTime",
          "type": "uint256"
        },
        {
          "indexed": false,
          "internalType": "uint256",
          "name": "salt",
          "type": "uint256"
        },
        {
          "indexed": false,
          "internalType": "bool",
          "name": "orderbookInclusionDesired",
          "type": "bool"
        }
      ],
      "name": "OrderApprovedPartTwo",
      "type": "event"
    },
    {
      "anonymous": false,
      "inputs": [
        {
          "indexed": true,
          "internalType": "bytes32",
          "name": "hash",
          "type": "bytes32"
        }
      ],
      "name": "OrderCancelled",
      "type": "event"
    },
    {
      "anonymous": false,
      "inputs": [
        {
          "indexed": false,
          "internalType": "bytes32",
          "name": "buyHash",
          "type": "bytes32"
        },
        {
          "indexed": false,
          "internalType": "bytes32",
          "name": "sellHash",
          "type": "bytes32"
        },
        {
          "indexed": true,
          "internalType": "address",
          "name": "maker",
          "type": "address"
        },
        {
          "indexed": true,
          "internalType": "address",
          "name": "taker",
          "type": "address"
        },
        {
          "indexed": false,
          "internalType": "uint256",
          "name": "price",
          "type": "uint256"
        },
        {
          "indexed": true,
          "internalType": "bytes32",
          "name": "metadata",
          "type": "bytes32"
        }
      ],
      "name": "OrdersMatched",
      "type": "event"
    },
    {
      "anonymous": false,
      "inputs": [
        {
          "indexed": true,
          "internalType": "address",
          "name": "previousOwner",
          "type": "address"
        },
        {
          "indexed": true,
          "internalType": "address",
          "name": "newOwner",
          "type": "address"
        }
      ],
      "name": "OwnershipTransferred",
      "type": "event"
    },
    {
      "inputs": [],
      "name": "INVERSE_BASIS_POINT",
      "outputs": [
        {
          "internalType": "uint256",
          "name": "",
          "type": "uint256"
        }
      ],
      "stateMutability": "view",
      "type": "function"
    },
    {
      "inputs": [
        {
          "internalType": "uint256",
          "name": "_minimumMakerProtocolFee",
          "type": "uint256"
        },
        {
          "internalType": "uint256",
          "name": "_minimumTakerProtocolFee",
          "type": "uint256"
        }
      ],
      "name": "__ExchangeCore_init",
      "outputs": [],
      "stateMutability": "nonpayable",
      "type": "function"
    },
    {
      "inputs": [],
      "name": "__Exchange_init",
      "outputs": [],
      "stateMutability": "nonpayable",
      "type": "function"
    },
    {
      "inputs": [
        {
          "internalType": "contract ProxyRegistry",
          "name": "registryAddress",
          "type": "address"
        },
        {
          "internalType": "contract TokenTransferProxy",
          "name": "tokenTransferProxyAddress",
          "type": "address"
        },
        {
          "internalType": "contract ERC20",
          "name": "tokenAddress",
          "type": "address"
        },
        {
          "internalType": "address",
          "name": "protocolFeeAddress",
          "type": "address"
        }
      ],
      "name": "__WyvernExchange_init",
      "outputs": [],
      "stateMutability": "nonpayable",
      "type": "function"
    },
    {
      "inputs": [
        {
          "internalType": "address[7]",
          "name": "addrs",
          "type": "address[7]"
        },
        {
          "internalType": "uint256[9]",
          "name": "uints",
          "type": "uint256[9]"
        },
        {
          "internalType": "enum ExchangeCore.FeeMethod",
          "name": "feeMethod",
          "type": "uint8"
        },
        {
          "internalType": "enum SaleKindInterface.Side",
          "name": "side",
          "type": "uint8"
        },
        {
          "internalType": "enum SaleKindInterface.SaleKind",
          "name": "saleKind",
          "type": "uint8"
        },
        {
          "internalType": "enum AuthenticatedProxy.HowToCall",
          "name": "howToCall",
          "type": "uint8"
        },
        {
          "internalType": "bytes",
          "name": "_calldata",
          "type": "bytes"
        },
        {
          "internalType": "bytes",
          "name": "replacementPattern",
          "type": "bytes"
        },
        {
          "internalType": "bytes",
          "name": "staticExtradata",
          "type": "bytes"
        },
        {
          "internalType": "bool",
          "name": "orderbookInclusionDesired",
          "type": "bool"
        }
      ],
      "name": "approveOrder_",
      "outputs": [],
      "stateMutability": "nonpayable",
      "type": "function"
    },
    {
      "inputs": [
        {
          "internalType": "bytes32",
          "name": "",
          "type": "bytes32"
        }
      ],
      "name": "approvedOrders",
      "outputs": [
        {
          "internalType": "bool",
          "name": "",
          "type": "bool"
        }
      ],
      "stateMutability": "view",
      "type": "function"
    },
    {
      "inputs": [
        {
          "internalType": "address[14]",
          "name": "addrs",
          "type": "address[14]"
        },
        {
          "internalType": "uint256[18]",
          "name": "uints",
          "type": "uint256[18]"
        },
        {
          "internalType": "uint8[8]",
          "name": "feeMethodsSidesKindsHowToCalls",
          "type": "uint8[8]"
        },
        {
          "internalType": "bytes",
          "name": "calldataBuy",
          "type": "bytes"
        },
        {
          "internalType": "bytes",
          "name": "calldataSell",
          "type": "bytes"
        },
        {
          "internalType": "bytes",
          "name": "replacementPatternBuy",
          "type": "bytes"
        },
        {
          "internalType": "bytes",
          "name": "replacementPatternSell",
          "type": "bytes"
        },
        {
          "internalType": "bytes",
          "name": "staticExtradataBuy",
          "type": "bytes"
        },
        {
          "internalType": "bytes",
          "name": "staticExtradataSell",
          "type": "bytes"
        },
        {
          "internalType": "uint8[2]",
          "name": "vs",
          "type": "uint8[2]"
        },
        {
          "internalType": "bytes32[5]",
          "name": "rssMetadata",
          "type": "bytes32[5]"
        }
      ],
      "name": "atomicMatch_",
      "outputs": [],
      "stateMutability": "payable",
      "type": "function"
    },
    {
      "inputs": [
        {
          "internalType": "address[7]",
          "name": "addrs",
          "type": "address[7]"
        },
        {
          "internalType": "uint256[9]",
          "name": "uints",
          "type": "uint256[9]"
        },
        {
          "internalType": "enum ExchangeCore.FeeMethod",
          "name": "feeMethod",
          "type": "uint8"
        },
        {
          "internalType": "enum SaleKindInterface.Side",
          "name": "side",
          "type": "uint8"
        },
        {
          "internalType": "enum SaleKindInterface.SaleKind",
          "name": "saleKind",
          "type": "uint8"
        },
        {
          "internalType": "enum AuthenticatedProxy.HowToCall",
          "name": "howToCall",
          "type": "uint8"
        },
        {
          "internalType": "bytes",
          "name": "_calldata",
          "type": "bytes"
        },
        {
          "internalType": "bytes",
          "name": "replacementPattern",
          "type": "bytes"
        },
        {
          "internalType": "bytes",
          "name": "staticExtradata",
          "type": "bytes"
        }
      ],
      "name": "calculateCurrentPrice_",
      "outputs": [
        {
          "internalType": "uint256",
          "name": "",
          "type": "uint256"
        }
      ],
      "stateMutability": "view",
      "type": "function"
    },
    {
      "inputs": [
        {
          "internalType": "enum SaleKindInterface.Side",
          "name": "side",
          "type": "uint8"
        },
        {
          "internalType": "enum SaleKindInterface.SaleKind",
          "name": "saleKind",
          "type": "uint8"
        },
        {
          "internalType": "uint256",
          "name": "basePrice",
          "type": "uint256"
        },
        {
          "internalType": "uint256",
          "name": "extra",
          "type": "uint256"
        },
        {
          "internalType": "uint256",
          "name": "listingTime",
          "type": "uint256"
        },
        {
          "internalType": "uint256",
          "name": "expirationTime",
          "type": "uint256"
        }
      ],
      "name": "calculateFinalPrice",
      "outputs": [
        {
          "internalType": "uint256",
          "name": "",
          "type": "uint256"
        }
      ],
      "stateMutability": "view",
      "type": "function"
    },
    {
      "inputs": [
        {
          "internalType": "address[14]",
          "name": "addrs",
          "type": "address[14]"
        },
        {
          "internalType": "uint256[18]",
          "name": "uints",
          "type": "uint256[18]"
        },
        {
          "internalType": "uint8[8]",
          "name": "feeMethodsSidesKindsHowToCalls",
          "type": "uint8[8]"
        },
        {
          "internalType": "bytes",
          "name": "calldataBuy",
          "type": "bytes"
        },
        {
          "internalType": "bytes",
          "name": "calldataSell",
          "type": "bytes"
        },
        {
          "internalType": "bytes",
          "name": "replacementPatternBuy",
          "type": "bytes"
        },
        {
          "internalType": "bytes",
          "name": "replacementPatternSell",
          "type": "bytes"
        },
        {
          "internalType": "bytes",
          "name": "staticExtradataBuy",
          "type": "bytes"
        },
        {
          "internalType": "bytes",
          "name": "staticExtradataSell",
          "type": "bytes"
        }
      ],
      "name": "calculateMatchPrice_",
      "outputs": [
        {
          "internalType": "uint256",
          "name": "",
          "type": "uint256"
        }
      ],
      "stateMutability": "view",
      "type": "function"
    },
    {
      "inputs": [
        {
          "internalType": "address[7]",
          "name": "addrs",
          "type": "address[7]"
        },
        {
          "internalType": "uint256[9]",
          "name": "uints",
          "type": "uint256[9]"
        },
        {
          "internalType": "enum ExchangeCore.FeeMethod",
          "name": "feeMethod",
          "type": "uint8"
        },
        {
          "internalType": "enum SaleKindInterface.Side",
          "name": "side",
          "type": "uint8"
        },
        {
          "internalType": "enum SaleKindInterface.SaleKind",
          "name": "saleKind",
          "type": "uint8"
        },
        {
          "internalType": "enum AuthenticatedProxy.HowToCall",
          "name": "howToCall",
          "type": "uint8"
        },
        {
          "internalType": "bytes",
          "name": "_calldata",
          "type": "bytes"
        },
        {
          "internalType": "bytes",
          "name": "replacementPattern",
          "type": "bytes"
        },
        {
          "internalType": "bytes",
          "name": "staticExtradata",
          "type": "bytes"
        },
        {
          "internalType": "uint8",
          "name": "v",
          "type": "uint8"
        },
        {
          "internalType": "bytes32",
          "name": "r",
          "type": "bytes32"
        },
        {
          "internalType": "bytes32",
          "name": "s",
          "type": "bytes32"
        }
      ],
      "name": "cancelOrder_",
      "outputs": [],
      "stateMutability": "nonpayable",
      "type": "function"
    },
    {
      "inputs": [
        {
          "internalType": "bytes32",
          "name": "",
          "type": "bytes32"
        }
      ],
      "name": "cancelledOrFinalized",
      "outputs": [
        {
          "internalType": "bool",
          "name": "",
          "type": "bool"
        }
      ],
      "stateMutability": "view",
      "type": "function"
    },
    {
      "inputs": [
        {
          "internalType": "uint256",
          "name": "newMinimumMakerProtocolFee",
          "type": "uint256"
        }
      ],
      "name": "changeMinimumMakerProtocolFee",
      "outputs": [],
      "stateMutability": "nonpayable",
      "type": "function"
    },
    {
      "inputs": [
        {
          "internalType": "uint256",
          "name": "newMinimumTakerProtocolFee",
          "type": "uint256"
        }
      ],
      "name": "changeMinimumTakerProtocolFee",
      "outputs": [],
      "stateMutability": "nonpayable",
      "type": "function"
    },
    {
      "inputs": [
        {
          "internalType": "address",
          "name": "newProtocolFeeRecipient",
          "type": "address"
        }
      ],
      "name": "changeProtocolFeeRecipient",
      "outputs": [],
      "stateMutability": "nonpayable",
      "type": "function"
    },
    {
      "inputs": [],
      "name": "codename",
      "outputs": [
        {
          "internalType": "string",
          "name": "",
          "type": "string"
        }
      ],
      "stateMutability": "view",
      "type": "function"
    },
    {
      "inputs": [],
      "name": "exchangeToken",
      "outputs": [
        {
          "internalType": "contract ERC20",
          "name": "",
          "type": "address"
        }
      ],
      "stateMutability": "view",
      "type": "function"
    },
    {
      "inputs": [
        {
          "internalType": "bytes",
          "name": "array",
          "type": "bytes"
        },
        {
          "internalType": "bytes",
          "name": "desired",
          "type": "bytes"
        },
        {
          "internalType": "bytes",
          "name": "mask",
          "type": "bytes"
        }
      ],
      "name": "guardedArrayReplace",
      "outputs": [
        {
          "internalType": "bytes",
          "name": "",
          "type": "bytes"
        }
      ],
      "stateMutability": "pure",
      "type": "function"
    },
    {
      "inputs": [
        {
          "internalType": "address[7]",
          "name": "addrs",
          "type": "address[7]"
        },
        {
          "internalType": "uint256[9]",
          "name": "uints",
          "type": "uint256[9]"
        },
        {
          "internalType": "enum ExchangeCore.FeeMethod",
          "name": "feeMethod",
          "type": "uint8"
        },
        {
          "internalType": "enum SaleKindInterface.Side",
          "name": "side",
          "type": "uint8"
        },
        {
          "internalType": "enum SaleKindInterface.SaleKind",
          "name": "saleKind",
          "type": "uint8"
        },
        {
          "internalType": "enum AuthenticatedProxy.HowToCall",
          "name": "howToCall",
          "type": "uint8"
        },
        {
          "internalType": "bytes",
          "name": "_calldata",
          "type": "bytes"
        },
        {
          "internalType": "bytes",
          "name": "replacementPattern",
          "type": "bytes"
        },
        {
          "internalType": "bytes",
          "name": "staticExtradata",
          "type": "bytes"
        }
      ],
      "name": "hashOrder_",
      "outputs": [
        {
          "internalType": "bytes32",
          "name": "",
          "type": "bytes32"
        }
      ],
      "stateMutability": "pure",
      "type": "function"
    },
    {
      "inputs": [
        {
          "internalType": "address[7]",
          "name": "addrs",
          "type": "address[7]"
        },
        {
          "internalType": "uint256[9]",
          "name": "uints",
          "type": "uint256[9]"
        },
        {
          "internalType": "enum ExchangeCore.FeeMethod",
          "name": "feeMethod",
          "type": "uint8"
        },
        {
          "internalType": "enum SaleKindInterface.Side",
          "name": "side",
          "type": "uint8"
        },
        {
          "internalType": "enum SaleKindInterface.SaleKind",
          "name": "saleKind",
          "type": "uint8"
        },
        {
          "internalType": "enum AuthenticatedProxy.HowToCall",
          "name": "howToCall",
          "type": "uint8"
        },
        {
          "internalType": "bytes",
          "name": "_calldata",
          "type": "bytes"
        },
        {
          "internalType": "bytes",
          "name": "replacementPattern",
          "type": "bytes"
        },
        {
          "internalType": "bytes",
          "name": "staticExtradata",
          "type": "bytes"
        }
      ],
      "name": "hashToSign_",
      "outputs": [
        {
          "internalType": "bytes32",
          "name": "",
          "type": "bytes32"
        }
      ],
      "stateMutability": "pure",
      "type": "function"
    },
    {
      "inputs": [],
      "name": "minimumMakerProtocolFee",
      "outputs": [
        {
          "internalType": "uint256",
          "name": "",
          "type": "uint256"
        }
      ],
      "stateMutability": "view",
      "type": "function"
    },
    {
      "inputs": [],
      "name": "minimumTakerProtocolFee",
      "outputs": [
        {
          "internalType": "uint256",
          "name": "",
          "type": "uint256"
        }
      ],
      "stateMutability": "view",
      "type": "function"
    },
    {
      "inputs": [],
      "name": "name",
      "outputs": [
        {
          "internalType": "string",
          "name": "",
          "type": "string"
        }
      ],
      "stateMutability": "view",
      "type": "function"
    },
    {
      "inputs": [
        {
          "internalType": "bytes",
          "name": "buyCalldata",
          "type": "bytes"
        },
        {
          "internalType": "bytes",
          "name": "buyReplacementPattern",
          "type": "bytes"
        },
        {
          "internalType": "bytes",
          "name": "sellCalldata",
          "type": "bytes"
        },
        {
          "internalType": "bytes",
          "name": "sellReplacementPattern",
          "type": "bytes"
        }
      ],
      "name": "orderCalldataCanMatch",
      "outputs": [
        {
          "internalType": "bool",
          "name": "",
          "type": "bool"
        }
      ],
      "stateMutability": "pure",
      "type": "function"
    },
    {
      "inputs": [
        {
          "internalType": "address[14]",
          "name": "addrs",
          "type": "address[14]"
        },
        {
          "internalType": "uint256[18]",
          "name": "uints",
          "type": "uint256[18]"
        },
        {
          "internalType": "uint8[8]",
          "name": "feeMethodsSidesKindsHowToCalls",
          "type": "uint8[8]"
        },
        {
          "internalType": "bytes",
          "name": "calldataBuy",
          "type": "bytes"
        },
        {
          "internalType": "bytes",
          "name": "calldataSell",
          "type": "bytes"
        },
        {
          "internalType": "bytes",
          "name": "replacementPatternBuy",
          "type": "bytes"
        },
        {
          "internalType": "bytes",
          "name": "replacementPatternSell",
          "type": "bytes"
        },
        {
          "internalType": "bytes",
          "name": "staticExtradataBuy",
          "type": "bytes"
        },
        {
          "internalType": "bytes",
          "name": "staticExtradataSell",
          "type": "bytes"
        }
      ],
      "name": "ordersCanMatch_",
      "outputs": [
        {
          "internalType": "bool",
          "name": "",
          "type": "bool"
        }
      ],
      "stateMutability": "view",
      "type": "function"
    },
    {
      "inputs": [],
      "name": "owner",
      "outputs": [
        {
          "internalType": "address",
          "name": "",
          "type": "address"
        }
      ],
      "stateMutability": "view",
      "type": "function"
    },
    {
      "inputs": [],
      "name": "protocolFeeRecipient",
      "outputs": [
        {
          "internalType": "address",
          "name": "",
          "type": "address"
        }
      ],
      "stateMutability": "view",
      "type": "function"
    },
    {
      "inputs": [],
      "name": "registry",
      "outputs": [
        {
          "internalType": "contract ProxyRegistry",
          "name": "",
          "type": "address"
        }
      ],
      "stateMutability": "view",
      "type": "function"
    },
    {
      "inputs": [],
      "name": "renounceOwnership",
      "outputs": [],
      "stateMutability": "nonpayable",
      "type": "function"
    },
    {
      "inputs": [
        {
          "internalType": "address",
          "name": "target",
          "type": "address"
        },
        {
          "internalType": "bytes",
          "name": "_calldata",
          "type": "bytes"
        },
        {
          "internalType": "bytes",
          "name": "extradata",
          "type": "bytes"
        }
      ],
      "name": "staticCall",
      "outputs": [
        {
          "internalType": "bool",
          "name": "result",
          "type": "bool"
        }
      ],
      "stateMutability": "view",
      "type": "function"
    },
    {
      "inputs": [
        {
          "internalType": "bytes",
          "name": "arrToCopy",
          "type": "bytes"
        }
      ],
      "name": "testCopy",
      "outputs": [
        {
          "internalType": "bytes",
          "name": "",
          "type": "bytes"
        }
      ],
      "stateMutability": "pure",
      "type": "function"
    },
    {
      "inputs": [
        {
          "internalType": "address",
          "name": "addr",
          "type": "address"
        }
      ],
      "name": "testCopyAddress",
      "outputs": [
        {
          "internalType": "bytes",
          "name": "",
          "type": "bytes"
        }
      ],
      "stateMutability": "pure",
      "type": "function"
    },
    {
      "inputs": [],
      "name": "tokenTransferProxy",
      "outputs": [
        {
          "internalType": "contract TokenTransferProxy",
          "name": "",
          "type": "address"
        }
      ],
      "stateMutability": "view",
      "type": "function"
    },
    {
      "inputs": [
        {
          "internalType": "address",
          "name": "newOwner",
          "type": "address"
        }
      ],
      "name": "transferOwnership",
      "outputs": [],
      "stateMutability": "nonpayable",
      "type": "function"
    },
    {
      "inputs": [
        {
          "internalType": "address[7]",
          "name": "addrs",
          "type": "address[7]"
        },
        {
          "internalType": "uint256[9]",
          "name": "uints",
          "type": "uint256[9]"
        },
        {
          "internalType": "enum ExchangeCore.FeeMethod",
          "name": "feeMethod",
          "type": "uint8"
        },
        {
          "internalType": "enum SaleKindInterface.Side",
          "name": "side",
          "type": "uint8"
        },
        {
          "internalType": "enum SaleKindInterface.SaleKind",
          "name": "saleKind",
          "type": "uint8"
        },
        {
          "internalType": "enum AuthenticatedProxy.HowToCall",
          "name": "howToCall",
          "type": "uint8"
        },
        {
          "internalType": "bytes",
          "name": "_calldata",
          "type": "bytes"
        },
        {
          "internalType": "bytes",
          "name": "replacementPattern",
          "type": "bytes"
        },
        {
          "internalType": "bytes",
          "name": "staticExtradata",
          "type": "bytes"
        }
      ],
      "name": "validateOrderParameters_",
      "outputs": [
        {
          "internalType": "bool",
          "name": "",
          "type": "bool"
        }
      ],
      "stateMutability": "view",
      "type": "function"
    },
    {
      "inputs": [
        {
          "internalType": "address[7]",
          "name": "addrs",
          "type": "address[7]"
        },
        {
          "internalType": "uint256[9]",
          "name": "uints",
          "type": "uint256[9]"
        },
        {
          "internalType": "enum ExchangeCore.FeeMethod",
          "name": "feeMethod",
          "type": "uint8"
        },
        {
          "internalType": "enum SaleKindInterface.Side",
          "name": "side",
          "type": "uint8"
        },
        {
          "internalType": "enum SaleKindInterface.SaleKind",
          "name": "saleKind",
          "type": "uint8"
        },
        {
          "internalType": "enum AuthenticatedProxy.HowToCall",
          "name": "howToCall",
          "type": "uint8"
        },
        {
          "internalType": "bytes",
          "name": "_calldata",
          "type": "bytes"
        },
        {
          "internalType": "bytes",
          "name": "replacementPattern",
          "type": "bytes"
        },
        {
          "internalType": "bytes",
          "name": "staticExtradata",
          "type": "bytes"
        },
        {
          "internalType": "uint8",
          "name": "v",
          "type": "uint8"
        },
        {
          "internalType": "bytes32",
          "name": "r",
          "type": "bytes32"
        },
        {
          "internalType": "bytes32",
          "name": "s",
          "type": "bytes32"
        }
      ],
      "name": "validateOrder_",
      "outputs": [
        {
          "internalType": "bool",
          "name": "",
          "type": "bool"
        }
      ],
      "stateMutability": "view",
      "type": "function"
    },
    {
      "inputs": [],
      "name": "version",
      "outputs": [
        {
          "internalType": "string",
          "name": "",
          "type": "string"
        }
      ],
      "stateMutability": "view",
      "type": "function"
    }
  ],
  "bytecode": "0x608060405234801561001057600080fd5b50615a6280620000216000396000f3fe60806040526004361061021a5760003560e01c806364df049e116101235780638da5cb5b116100ab578063cae6047f1161006f578063cae6047f1461062e578063d537e13114610644578063e57d4adb14610664578063f2fde38b14610694578063f45f677e146106b457600080fd5b80638da5cb5b1461059d578063a25eb5d9146105bb578063a8a41c70146105db578063ab834bab146105fb578063ca595b9a1461060e57600080fd5b806379666868116100f257806379666868146104f75780637b103999146105175780637ccefc52146105375780637d7669811461054d5780638076f0051461056d57600080fd5b806364df049e14610482578063715018a6146104a257806371d02b38146104b757806372593b4c146104d757600080fd5b80633464af6a116101a6578063514f033011610175578063514f0330146103ed57806354fd4d501461040d578063562b2ebc1461042257806360bef33a1461044257806363d36c0b1461046257600080fd5b80633464af6a1461036d5780633e1e292a1461038d5780633f67ee0d146103ad5780634d5458b0146103cd57600080fd5b80631a6b13e2116101ed5780631a6b13e2146102d4578063231421fe146102f4578063239e83df1461031457806328a8ee681461033457806331e631991461035857600080fd5b806306fdde031461021f5780630eefdbad1461024a57806310796a471461028257806314350c24146102b2575b600080fd5b34801561022b57600080fd5b506102346106c9565b6040516102419190614ab7565b60405180910390f35b34801561025657600080fd5b5060995461026a906001600160a01b031681565b6040516001600160a01b039091168152602001610241565b34801561028e57600080fd5b506102a261029d366004614b81565b610757565b6040519015158152602001610241565b3480156102be57600080fd5b506102d26102cd366004614bf6565b6107e1565b005b3480156102e057600080fd5b506102d26102ef366004614bf6565b610819565b34801561030057600080fd5b506102d261030f366004614c0f565b610848565b34801561032057600080fd5b5061023461032f366004614c6b565b6109b3565b34801561034057600080fd5b5061034a609d5481565b604051908152602001610241565b34801561036457600080fd5b506102346109c8565b34801561037957600080fd5b50610234610388366004614cb9565b6109d5565b34801561039957600080fd5b506102346103a8366004614cd6565b610a11565b3480156103b957600080fd5b5061034a6103c8366004614e07565b610a69565b3480156103d957600080fd5b506102d26103e8366004614efb565b610cd3565b3480156103f957600080fd5b506102d2610408366004614cb9565b610d67565b34801561041957600080fd5b50610234610db3565b34801561042e57600080fd5b506102a261043d366004614f1d565b610dc0565b34801561044e57600080fd5b506102a261045d366004614fda565b610dfa565b34801561046e57600080fd5b5061034a61047d366004615107565b6110a9565b34801561048e57600080fd5b50609e5461026a906001600160a01b031681565b3480156104ae57600080fd5b506102d26110c6565b3480156104c357600080fd5b5061034a6104d2366004614e07565b6110fc565b3480156104e357600080fd5b506102a26104f2366004615269565b611358565b34801561050357600080fd5b506102d2610512366004615397565b611903565b34801561052357600080fd5b5060985461026a906001600160a01b031681565b34801561054357600080fd5b5061034a609c5481565b34801561055957600080fd5b5061034a610568366004614e07565b611b70565b34801561057957600080fd5b506102a2610588366004614bf6565b609a6020526000908152604090205460ff1681565b3480156105a957600080fd5b506065546001600160a01b031661026a565b3480156105c757600080fd5b5060975461026a906001600160a01b031681565b3480156105e757600080fd5b506102d26105f6366004614fda565b611dcc565b6102d261060936600461556a565b612066565b34801561061a57600080fd5b506102a2610629366004614e07565b6126a5565b34801561063a57600080fd5b5061034a609f5481565b34801561065057600080fd5b5061034a61065f366004615269565b612914565b34801561067057600080fd5b506102a261067f366004614bf6565b609b6020526000908152604090205460ff1681565b3480156106a057600080fd5b506102d26106af366004614cb9565b612eaf565b3480156106c057600080fd5b506102d2612f4a565b60a080546106d6906156cf565b80601f0160208091040260200160405190810160405280929190818152602001828054610702906156cf565b801561074f5780601f106107245761010080835404028352916020019161074f565b820191906000526020600020905b81548152906001019060200180831161073257829003601f168201915b505050505081565b600080825184516107689190615720565b6001600160401b0381111561077f5761077f614adf565b6040519080825280601f01601f1916602001820160405280156107a9576020820181803683370190505b509050602081016107ba8185612fc6565b90506107c68186612fc6565b506000604051835160208501895afa925050505b9392505050565b6065546001600160a01b031633146108145760405162461bcd60e51b815260040161080b90615738565b60405180910390fd5b609c55565b6065546001600160a01b031633146108435760405162461bcd60e51b815260040161080b90615738565b609d55565b600054610100900460ff166108635760005460ff1615610867565b303b155b6108835760405162461bcd60e51b815260040161080b9061576d565b600054610100900460ff161580156108a5576000805461ffff19166101011790555b6108ad612f4a565b609880546001600160a01b038088166001600160a01b0319928316179092556099805487841690831617905560978054868416908316179055609e8054928516929091169190911790556040805180820190915260178082527f50726f6a6563742057797665726e2045786368616e6765000000000000000000602090920191825261093b9160a0916149c6565b506040805180820190915260038082526219171960e91b60209092019182526109669160a1916149c6565b5060408051808201909152600b8082526a426c696e6720426c6f6e6760a81b60209092019182526109999160a2916149c6565b5080156109ac576000805461ff00191690555b5050505050565b60606109c0848484613009565b509192915050565b60a280546106d6906156cf565b6040805160148082528183019092526060916000919060208201818036833701905050905060208101610a088185613195565b50909392505050565b6060600082516001600160401b03811115610a2e57610a2e614adf565b6040519080825280601f01601f191660200182016040528015610a58576020820181803683370190505b50905060208101610a088185612fc6565b6000610cc5604051806102e001604052808c600060078110610a8d57610a8d6157bb565b60200201516001600160a01b031681526020018c600160078110610ab357610ab36157bb565b60200201516001600160a01b031681526020018c600260078110610ad957610ad96157bb565b60200201516001600160a01b031681526020018b600060098110610aff57610aff6157bb565b602002015181526020018b600160098110610b1c57610b1c6157bb565b602002015181526020018b600260098110610b3957610b396157bb565b602002015181526020018b600360098110610b5657610b566157bb565b602002015181526020018c600360078110610b7357610b736157bb565b60200201516001600160a01b031681526020018a6001811115610b9857610b986157d1565b8152602001896001811115610baf57610baf6157d1565b8152602001886001811115610bc657610bc66157d1565b815260808d01516001600160a01b03166020820152604001876001811115610bf057610bf06157d1565b8152602081018790526040810186905260a0808e01516001600160a01b0316606083015260808201869052018c600660200201516001600160a01b031681526020018b600460098110610c4557610c456157bb565b602002015181526020018b600560098110610c6257610c626157bb565b602002015181526020018b600660098110610c7f57610c7f6157bb565b602002015181526020018b600760098110610c9c57610c9c6157bb565b602002015181526020018b600860098110610cb957610cb96157bb565b602002015190526131af565b9a9950505050505050505050565b600054610100900460ff16610cee5760005460ff1615610cf2565b303b155b610d0e5760405162461bcd60e51b815260040161080b9061576d565b600054610100900460ff16158015610d30576000805461ffff19166101011790555b610d386131e3565b610d4061321a565b612710609f55609c839055609d8290558015610d62576000805461ff00191690555b505050565b6065546001600160a01b03163314610d915760405162461bcd60e51b815260040161080b90615738565b609e80546001600160a01b0319166001600160a01b0392909216919091179055565b60a180546106d6906156cf565b825160009015610dd557610dd5858486613009565b815115610de757610de7838684613009565b610df18584613249565b95945050505050565b600080604051806102e001604052808f600060078110610e1c57610e1c6157bb565b60200201516001600160a01b031681526020018f600160078110610e4257610e426157bb565b60200201516001600160a01b031681526020018f600260078110610e6857610e686157bb565b60200201516001600160a01b031681526020018e600060098110610e8e57610e8e6157bb565b602002015181526020018e600160098110610eab57610eab6157bb565b602002015181526020018e600260098110610ec857610ec86157bb565b602002015181526020018e600360098110610ee557610ee56157bb565b602002015181526020018f600360078110610f0257610f026157bb565b60200201516001600160a01b031681526020018d6001811115610f2757610f276157d1565b81526020018c6001811115610f3e57610f3e6157d1565b81526020018b6001811115610f5557610f556157d1565b81526020018f600460200201516001600160a01b031681526020018a6001811115610f8257610f826157d1565b8152602081018a9052604081018990526060018f600560200201516001600160a01b031681526020018781526020018f600660078110610fc457610fc46157bb565b60200201516001600160a01b031681526020018e600460098110610fea57610fea6157bb565b602002015181526020018e600560098110611007576110076157bb565b602002015181526020018e600660098110611024576110246157bb565b602002015181526020018e600760098110611041576110416157bb565b602002015181526020018e60086009811061105e5761105e6157bb565b602002015190529050611097611073826132ad565b8260405180606001604052808960ff16815260200188815260200187815250613309565b9e9d5050505050505050505050505050565b60006110b98787878787876133ef565b90505b9695505050505050565b6065546001600160a01b031633146110f05760405162461bcd60e51b815260040161080b90615738565b6110fa600061348a565b565b6000610cc5604051806102e001604052808c600060078110611120576111206157bb565b60200201516001600160a01b031681526020018c600160078110611146576111466157bb565b60200201516001600160a01b031681526020018c60026007811061116c5761116c6157bb565b60200201516001600160a01b031681526020018b600060098110611192576111926157bb565b602002015181526020018b6001600981106111af576111af6157bb565b602002015181526020018b6002600981106111cc576111cc6157bb565b602002015181526020018b6003600981106111e9576111e96157bb565b602002015181526020018c600360078110611206576112066157bb565b60200201516001600160a01b031681526020018a600181111561122b5761122b6157d1565b8152602001896001811115611242576112426157d1565b8152602001886001811115611259576112596157d1565b815260808d01516001600160a01b03166020820152604001876001811115611283576112836157d1565b8152602081018790526040810186905260a0808e01516001600160a01b0316606083015260808201869052018c600660200201516001600160a01b031681526020018b6004600981106112d8576112d86157bb565b602002015181526020018b6005600981106112f5576112f56157bb565b602002015181526020018b600660098110611312576113126157bb565b602002015181526020018b60076009811061132f5761132f6157bb565b602002015181526020018b60086009811061134c5761134c6157bb565b602002015190526134dc565b600080604051806102e001604052808c6000600e811061137a5761137a6157bb565b60200201516001600160a01b031681526020018c6001600e81106113a0576113a06157bb565b60200201516001600160a01b031681526020018c6002600e81106113c6576113c66157bb565b60200201516001600160a01b031681526020018b6000601281106113ec576113ec6157bb565b602002015181526020018b600160128110611409576114096157bb565b602002015181526020018b600260128110611426576114266157bb565b602002015181526020018b600360128110611443576114436157bb565b602002015181526020018c6003600e8110611460576114606157bb565b60200201516001600160a01b031681526020018a600060088110611486576114866157bb565b602002015160ff16600181111561149f5761149f6157d1565b60018111156114b0576114b06157d1565b81526020018a6001602002015160ff1660018111156114d1576114d16157d1565b60018111156114e2576114e26157d1565b81526020018a6002602002015160ff166001811115611503576115036157d1565b6001811115611514576115146157d1565b815260808d01516001600160a01b031660208201526040018a6003602002015160ff166001811115611548576115486157d1565b6001811115611559576115596157d1565b8152602081018a90526040810188905260a0808e01516001600160a01b0316606083015260808201879052018c600660200201516001600160a01b031681526020018b6004601281106115ae576115ae6157bb565b602002015181526020018b6005601281106115cb576115cb6157bb565b602002015181526020018b6006601281106115e8576115e86157bb565b602002015181526020018b600760128110611605576116056157bb565b602002015181526020018b600860128110611622576116226157bb565b602002015181525090506000604051806102e001604052808d6007600e811061164d5761164d6157bb565b60200201516001600160a01b031681526020018d6008600e8110611673576116736157bb565b60200201516001600160a01b031681526020018d6009600e8110611699576116996157bb565b60200201516001600160a01b031681526020018c6009601281106116bf576116bf6157bb565b602002015181526020018c600a601281106116dc576116dc6157bb565b602002015181526020018c600b601281106116f9576116f96157bb565b602002015181526020018c600c60128110611716576117166157bb565b602002015181526020018d600a600e8110611733576117336157bb565b60200201516001600160a01b031681526020018b600460088110611759576117596157bb565b602002015160ff166001811115611772576117726157d1565b6001811115611783576117836157d1565b81526020018b6005602002015160ff1660018111156117a4576117a46157d1565b60018111156117b5576117b56157d1565b81526020018b6006602002015160ff1660018111156117d6576117d66157d1565b60018111156117e7576117e76157d1565b81526101608e01516001600160a01b031660208201526040018b6007602002015160ff16600181111561181c5761181c6157d1565b600181111561182d5761182d6157d1565b8152602081018a9052604081018890526101808e01516001600160a01b039081166060830152608082018790526101a08f01511660a082015260c0018c600d602002015181526020018c600e60128110611889576118896157bb565b602002015181526020018c600f601281106118a6576118a66157bb565b602002015181526020018c6010601281106118c3576118c36157bb565b602002015181526020018c6011601281106118e0576118e06157bb565b6020020151905290506118f382826136c7565b9c9b505050505050505050505050565b6000604051806102e001604052808c600060078110611924576119246157bb565b60200201516001600160a01b031681526020018c60016007811061194a5761194a6157bb565b60200201516001600160a01b031681526020018c600260078110611970576119706157bb565b60200201516001600160a01b031681526020018b600060098110611996576119966157bb565b602002015181526020018b6001600981106119b3576119b36157bb565b602002015181526020018b6002600981106119d0576119d06157bb565b602002015181526020018b6003600981106119ed576119ed6157bb565b602002015181526020018c600360078110611a0a57611a0a6157bb565b60200201516001600160a01b031681526020018a6001811115611a2f57611a2f6157d1565b8152602001896001811115611a4657611a466157d1565b8152602001886001811115611a5d57611a5d6157d1565b815260808d01516001600160a01b03166020820152604001876001811115611a8757611a876157d1565b8152602081018790526040810186905260a0808e01516001600160a01b0316606083015260808201869052018c600660200201516001600160a01b031681526020018b600460098110611adc57611adc6157bb565b602002015181526020018b600560098110611af957611af96157bb565b602002015181526020018b600660098110611b1657611b166157bb565b602002015181526020018b600760098110611b3357611b336157bb565b602002015181526020018b600860098110611b5057611b506157bb565b602002015190529050611b6381836138c5565b5050505050505050505050565b6000610cc5604051806102e001604052808c600060078110611b9457611b946157bb565b60200201516001600160a01b031681526020018c600160078110611bba57611bba6157bb565b60200201516001600160a01b031681526020018c600260078110611be057611be06157bb565b60200201516001600160a01b031681526020018b600060098110611c0657611c066157bb565b602002015181526020018b600160098110611c2357611c236157bb565b602002015181526020018b600260098110611c4057611c406157bb565b602002015181526020018b600360098110611c5d57611c5d6157bb565b602002015181526020018c600360078110611c7a57611c7a6157bb565b60200201516001600160a01b031681526020018a6001811115611c9f57611c9f6157d1565b8152602001896001811115611cb657611cb66157d1565b8152602001886001811115611ccd57611ccd6157d1565b815260808d01516001600160a01b03166020820152604001876001811115611cf757611cf76157d1565b8152602081018790526040810186905260a0808e01516001600160a01b0316606083015260808201869052018c600660200201516001600160a01b031681526020018b600460098110611d4c57611d4c6157bb565b602002015181526020018b600560098110611d6957611d696157bb565b602002015181526020018b600660098110611d8657611d866157bb565b602002015181526020018b600760098110611da357611da36157bb565b602002015181526020018b600860098110611dc057611dc06157bb565b602002015190526132ad565b612058604051806102e001604052808e600060078110611dee57611dee6157bb565b60200201516001600160a01b031681526020018e600160078110611e1457611e146157bb565b60200201516001600160a01b031681526020018e600260078110611e3a57611e3a6157bb565b60200201516001600160a01b031681526020018d600060098110611e6057611e606157bb565b602002015181526020018d600160098110611e7d57611e7d6157bb565b602002015181526020018d600260098110611e9a57611e9a6157bb565b602002015181526020018d600360098110611eb757611eb76157bb565b602002015181526020018e600360078110611ed457611ed46157bb565b60200201516001600160a01b031681526020018c6001811115611ef957611ef96157d1565b81526020018b6001811115611f1057611f106157d1565b81526020018a6001811115611f2757611f276157d1565b815260808f01516001600160a01b03166020820152604001896001811115611f5157611f516157d1565b815260208101899052604081018890526060018e600560200201516001600160a01b031681526020018681526020018e600660078110611f9357611f936157bb565b60200201516001600160a01b031681526020018d600460098110611fb957611fb96157bb565b602002015181526020018d600560098110611fd657611fd66157bb565b602002015181526020018d600660098110611ff357611ff36157bb565b602002015181526020018d600760098110612010576120106157bb565b602002015181526020018d60086009811061202d5761202d6157bb565b602002015181525060405180606001604052808660ff16815260200185815260200184815250613a59565b505050505050505050505050565b611b63604051806102e001604052808d6000600e8110612088576120886157bb565b60200201516001600160a01b031681526020018d6001600e81106120ae576120ae6157bb565b60200201516001600160a01b031681526020018d6002600e81106120d4576120d46157bb565b60200201516001600160a01b031681526020018c6000601281106120fa576120fa6157bb565b602002015181526020018c600160128110612117576121176157bb565b602002015181526020018c600260128110612134576121346157bb565b602002015181526020018c600360128110612151576121516157bb565b602002015181526020018d6003600e811061216e5761216e6157bb565b60200201516001600160a01b031681526020018b600060088110612194576121946157bb565b602002015160ff1660018111156121ad576121ad6157d1565b60018111156121be576121be6157d1565b81526020018b6001602002015160ff1660018111156121df576121df6157d1565b60018111156121f0576121f06157d1565b81526020018b6002602002015160ff166001811115612211576122116157d1565b6001811115612222576122226157d1565b815260808e01516001600160a01b031660208201526040018b6003602002015160ff166001811115612256576122566157d1565b6001811115612267576122676157d1565b8152602081018b90526040810189905260a0808f01516001600160a01b0316606083015260808201889052018d600660200201516001600160a01b031681526020018c6004601281106122bc576122bc6157bb565b602002015181526020018c6005601281106122d9576122d96157bb565b602002015181526020018c6006601281106122f6576122f66157bb565b602002015181526020018c600760128110612313576123136157bb565b602002015181526020018c600860128110612330576123306157bb565b6020908102919091015190915260408051606081018252865160ff168152855192810192909252810184600160200201519052604080516102e08101909152808f600760200201516001600160a01b031681526020018f6008600e8110612399576123996157bb565b60200201516001600160a01b031681526020018f6009600e81106123bf576123bf6157bb565b60200201516001600160a01b031681526020018e6009601281106123e5576123e56157bb565b602002015181526020018e600a60128110612402576124026157bb565b602002015181526020018e600b6012811061241f5761241f6157bb565b602002015181526020018e600c6012811061243c5761243c6157bb565b602002015181526020018f600a600e8110612459576124596157bb565b60200201516001600160a01b031681526020018d60046008811061247f5761247f6157bb565b602002015160ff166001811115612498576124986157d1565b60018111156124a9576124a96157d1565b81526020018d6005602002015160ff1660018111156124ca576124ca6157d1565b60018111156124db576124db6157d1565b81526020018d6006602002015160ff1660018111156124fc576124fc6157d1565b600181111561250d5761250d6157d1565b81526020018f600b60200201516001600160a01b031681526020018d60076008811061253b5761253b6157bb565b602002015160ff166001811115612554576125546157d1565b6001811115612565576125656157d1565b8152602081018c9052604081018a90526060018f600c60200201516001600160a01b031681526020018781526020018f600d600e81106125a7576125a76157bb565b60200201516001600160a01b031681526020018e600d601281106125cd576125cd6157bb565b602002015181526020018e600e601281106125ea576125ea6157bb565b602002015181526020018e600f60128110612607576126076157bb565b602002015181526020018e601060128110612624576126246157bb565b602002015181526020018e601160128110612641576126416157bb565b60200201519052604080516060810190915280876001602002015160ff16815260200186600260058110612677576126776157bb565b6020020151815260200186600360058110612694576126946157bb565b602002015190526080860151613ace565b600080604051806102e001604052808c6000600781106126c7576126c76157bb565b60200201516001600160a01b031681526020018c6001600781106126ed576126ed6157bb565b60200201516001600160a01b031681526020018c600260078110612713576127136157bb565b60200201516001600160a01b031681526020018b600060098110612739576127396157bb565b602002015181526020018b600160098110612756576127566157bb565b602002015181526020018b600260098110612773576127736157bb565b602002015181526020018b600360098110612790576127906157bb565b602002015181526020018c6003600781106127ad576127ad6157bb565b60200201516001600160a01b031681526020018a60018111156127d2576127d26157d1565b81526020018960018111156127e9576127e96157d1565b8152602001886001811115612800576128006157d1565b815260808d01516001600160a01b0316602082015260400187600181111561282a5761282a6157d1565b8152602081018790526040810186905260a0808e01516001600160a01b0316606083015260808201869052018c600660200201516001600160a01b031681526020018b60046009811061287f5761287f6157bb565b602002015181526020018b60056009811061289c5761289c6157bb565b602002015181526020018b6006600981106128b9576128b96157bb565b602002015181526020018b6007600981106128d6576128d66157bb565b602002015181526020018b6008600981106128f3576128f36157bb565b60200201519052905061290581614075565b9b9a5050505050505050505050565b600080604051806102e001604052808c6000600e8110612936576129366157bb565b60200201516001600160a01b031681526020018c6001600e811061295c5761295c6157bb565b60200201516001600160a01b031681526020018c6002600e8110612982576129826157bb565b60200201516001600160a01b031681526020018b6000601281106129a8576129a86157bb565b602002015181526020018b6001601281106129c5576129c56157bb565b602002015181526020018b6002601281106129e2576129e26157bb565b602002015181526020018b6003601281106129ff576129ff6157bb565b602002015181526020018c6003600e8110612a1c57612a1c6157bb565b60200201516001600160a01b031681526020018a600060088110612a4257612a426157bb565b602002015160ff166001811115612a5b57612a5b6157d1565b6001811115612a6c57612a6c6157d1565b81526020018a6001602002015160ff166001811115612a8d57612a8d6157d1565b6001811115612a9e57612a9e6157d1565b81526020018a6002602002015160ff166001811115612abf57612abf6157d1565b6001811115612ad057612ad06157d1565b815260808d01516001600160a01b031660208201526040018a6003602002015160ff166001811115612b0457612b046157d1565b6001811115612b1557612b156157d1565b8152602081018a90526040810188905260a0808e01516001600160a01b0316606083015260808201879052018c600660200201516001600160a01b031681526020018b600460128110612b6a57612b6a6157bb565b602002015181526020018b600560128110612b8757612b876157bb565b602002015181526020018b600660128110612ba457612ba46157bb565b602002015181526020018b600760128110612bc157612bc16157bb565b602002015181526020018b600860128110612bde57612bde6157bb565b602002015181525090506000604051806102e001604052808d6007600e8110612c0957612c096157bb565b60200201516001600160a01b031681526020018d6008600e8110612c2f57612c2f6157bb565b60200201516001600160a01b031681526020018d6009600e8110612c5557612c556157bb565b60200201516001600160a01b031681526020018c600960128110612c7b57612c7b6157bb565b602002015181526020018c600a60128110612c9857612c986157bb565b602002015181526020018c600b60128110612cb557612cb56157bb565b602002015181526020018c600c60128110612cd257612cd26157bb565b602002015181526020018d600a600e8110612cef57612cef6157bb565b60200201516001600160a01b031681526020018b600460088110612d1557612d156157bb565b602002015160ff166001811115612d2e57612d2e6157d1565b6001811115612d3f57612d3f6157d1565b81526020018b6005602002015160ff166001811115612d6057612d606157d1565b6001811115612d7157612d716157d1565b81526020018b6006602002015160ff166001811115612d9257612d926157d1565b6001811115612da357612da36157d1565b81526101608e01516001600160a01b031660208201526040018b6007602002015160ff166001811115612dd857612dd86157d1565b6001811115612de957612de96157d1565b8152602081018a9052604081018890526101808e01516001600160a01b039081166060830152608082018790526101a08f01511660a082015260c0018c600d602002015181526020018c600e60128110612e4557612e456157bb565b602002015181526020018c600f60128110612e6257612e626157bb565b602002015181526020018c601060128110612e7f57612e7f6157bb565b602002015181526020018c601160128110612e9c57612e9c6157bb565b6020020151905290506118f38282614100565b6065546001600160a01b03163314612ed95760405162461bcd60e51b815260040161080b90615738565b6001600160a01b038116612f3e5760405162461bcd60e51b815260206004820152602660248201527f4f776e61626c653a206e6577206f776e657220697320746865207a65726f206160448201526564647265737360d01b606482015260840161080b565b612f478161348a565b50565b600054610100900460ff16612f655760005460ff1615612f69565b303b155b612f855760405162461bcd60e51b815260040161080b9061576d565b600054610100900460ff16158015612fa7576000805461ffff19166101011790555b612fb2600080610cd3565b8015612f47576000805461ff001916905550565b80516000901561300257815180602001830160208401855b60018383101415612ff9578151815260209182019101612fde565b50505092909201915b5090919050565b815183511461301757600080fd5b805183511461302557600080fd5b60006020845161303591906157e7565b90506000613044826020615809565b9050816130526020836157e7565b1461305f5761305f615828565b60005b8281101561309c578060010160200280850151818701518116828901518219161782890152505080806130949061583e565b915050613062565b82156130c9578290508060010160200280850151818701518116828901518219161782890152505061318d565b50805b855181101561318d578481815181106130e7576130e76157bb565b602001015160f81c60f81b848281518110613104576131046157bb565b602001015160f81c60f81b16868281518110613122576131226157bb565b602001015160f81c60f81b85838151811061313f5761313f6157bb565b602001015160f81c60f81b60ff60f81b181617868281518110613164576131646157bb565b60200101906001600160f81b031916908160001a905350806131858161583e565b9150506130cc565b505050505050565b60601b6bffffffffffffffffffffffff1916815260140190565b60006131dd826101200151836101400151846102400151856102600151866102800151876102a001516133ef565b92915050565b600054610100900460ff1661320a5760405162461bcd60e51b815260040161080b90615859565b61321261418e565b6110fa6141b5565b600054610100900460ff166132415760405162461bcd60e51b815260040161080b90615859565b6110fa6141e5565b81518151600091600191811480831461326557600092506132a3565b600160208701838101602088015b60028483851001141561329e5780518351146132925760009650600093505b60209283019201613273565b505050505b5090949350505050565b60006132b8826134dc565b6040517f19457468657265756d205369676e6564204d6573736167653a0a3332000000006020820152603c810191909152605c01604051602081830303815290604052805190602001209050919050565b600061331483614075565b613320575060006107da565b6000848152609a602052604090205460ff161561333f575060006107da565b6000848152609b602052604090205460ff161561335e575060016107da565b6020808401518351848301516040808701518151600081529586018083528a905260ff90931690850152606084015260808301526001600160a01b03169060019060a0016020604051602081039080840390855afa1580156133c4573d6000803e3d6000fd5b505050602060405103516001600160a01b031614156133e5575060016107da565b5060009392505050565b600080866001811115613404576134046157d1565b14156134115750836110bc565b6001866001811115613425576134256157d1565b14156110bc5760006134526134438661343e4288614212565b61421e565b61344d8587614212565b61422a565b90506001886001811115613468576134686157d1565b1415613480576134788682614212565b9150506110bc565b6134788682614236565b606580546001600160a01b038381166001600160a01b0319831681179093556040519116919082907f8be0079c531659141344cd1fd0a4f28419497f9722a3daafe3b4186f6b6457e090600090a35050565b6000806134e883614242565b90506000816001600160401b0381111561350457613504614adf565b6040519080825280601f01601f19166020018201604052801561352e576020820181803683370190505b5084519091506020820190613544908290613195565b9050613554818660200151613195565b9050613564818660400151613195565b6060868101518252608080880151602084015260a0880151604084015260c08801519183019190915260e0870151910191506135a1908290613195565b90506135c38186610100015160018111156135be576135be6157d1565b61427a565b90506135e08186610120015160018111156135be576135be6157d1565b90506135fd8186610140015160018111156135be576135be6157d1565b905061360e81866101600151613195565b905061362b8186610180015160018111156135be576135be6157d1565b905061363c81866101a00151612fc6565b905061364d81866101c00151612fc6565b905061365e81866101e00151613195565b905061366f81866102000151612fc6565b905061368081866102200151613195565b610240860151815261026086015160208083019190915261028087015160408301526102a087015160608301526102c0909601516080909101525090920191909120919050565b60008083610120015160018111156136e1576136e16157d1565b148015613704575060018261012001516001811115613702576137026157d1565b145b801561373b57508161010001516001811115613722576137226157d1565b8361010001516001811115613739576137396157d1565b145b801561376257508161022001516001600160a01b03168361022001516001600160a01b0316145b801561379c575060408201516001600160a01b0316158061379c575082602001516001600160a01b031682604001516001600160a01b0316145b80156137d6575060408301516001600160a01b031615806137d6575081602001516001600160a01b031683604001516001600160a01b0316145b8015613831575060e08201516001600160a01b0316158015613804575060e08301516001600160a01b031615155b80613831575060e08201516001600160a01b031615801590613831575060e08301516001600160a01b0316155b801561385857508161016001516001600160a01b03168361016001516001600160a01b0316145b801561388f57508161018001516001811115613876576138766157d1565b836101800151600181111561388d5761388d6157d1565b145b80156138aa57506138aa836102800151846102a00151614287565b80156107da57506107da826102800151836102a00151614287565b81602001516001600160a01b0316336001600160a01b0316146138e757600080fd5b60006138f2836132ad565b6000818152609b602052604090205490915060ff161561391157600080fd5b6001609b600083815260200190815260200160002060006101000a81548160ff0219169083151502179055508260e001516001600160a01b031683602001516001600160a01b0316827f90c7f9f5b58c15f0f635bfb99f55d3d78fdbef3559e7d8abf5c81052a527662286600001518760400151886060015189608001518a60a001518b60c001518c61010001518d61012001518e61014001518f61016001516040516139c79a999897969594939291906158c2565b60405180910390a4807fe55393c778364e440d958b39ac1debd99dcfae3775a8a04d1e79124adf6a2d08846101800151856101a00151866101c00151876101e001518861020001518961022001518a61024001518b61026001518c61028001518d6102a001518e6102c001518e604051613a4c9c9b9a99989796959493929190615940565b60405180910390a2505050565b6000613a6583836142a3565b905082602001516001600160a01b0316336001600160a01b031614613a8957600080fd5b6000818152609a6020526040808220805460ff191660011790555182917f5152abf959f6564662358c2e52b702259b78bac5ee7842a0f01937e670efcc7d91a2505050565b60026001541415613b215760405162461bcd60e51b815260206004820152601f60248201527f5265656e7472616e637947756172643a207265656e7472616e742063616c6c00604482015260640161080b565b600260015560408051808201909152601081526f2b30b634b230ba34b7339027b93232b960811b6020820152613b56906142c5565b60208501516000906001600160a01b0316331415613bc357613bac6040518060400160405280601b81526020017f56616c69646174696e6720427579204f7264657220506172616d7300000000008152506142c5565b613bb586614075565b613bbe57600080fd5b613c0e565b613c016040518060400160405280601881526020017f436865636b696e672076616c696420627579206f7264657200000000000000008152506142c5565b613c0b86866142a3565b90505b60208401516000906001600160a01b0316331415613c7b57613c646040518060400160405280601c81526020017f56616c69646174696e672053656c6c204f7264657220506172616d73000000008152506142c5565b613c6d85614075565b613c7657600080fd5b613cc6565b613cb96040518060400160405280601981526020017f436865636b696e672076616c69642073656c6c206f72646572000000000000008152506142c5565b613cc385856142a3565b90505b613d046040518060400160405280601b81526020017f436865636b696e67206966206f726465722063616e206d6174636800000000008152506142c5565b613d0e87866136c7565b613d1757600080fd5b610160850151803b9081613d2a57600080fd5b613d5c604051806040016040528060118152602001704d61746368696e672063616c6c6461746160781b8152506142c5565b6101c08901515115613d8257613d82896101a00151886101a001518b6101c00151613009565b6101c08701515115613da857613da8876101a001518a6101a00151896101c00151613009565b613dbc896101a00151886101a00151613249565b613dc557600080fd5b88602001516001600160a01b0316336001600160a01b031614613dfc576000848152609a60205260409020805460ff191660011790555b86602001516001600160a01b0316336001600160a01b031614613e33576000838152609a60205260409020805460ff191660011790555b613e646040518060400160405280601081526020016f151c985b9cd9995c9a5b99c8199d5b9960821b8152506142c5565b6000613e708a89614308565b9050613e9e6040518060400160405280600b81526020016a13585ada5b99c818d85b1b60aa1b8152506142c5565b6000808961018001516001811115613eb857613eb86157d1565b1415613f28578861016001516001600160a01b0316896101a00151604051613ee091906159dc565b6000604051808303816000865af19150503d8060008114613f1d576040519150601f19603f3d011682016040523d82523d6000602084013e613f22565b606091505b50909150505b80613f5e5760405162461bcd60e51b815260206004820152600660248201526511985a5b195960d21b604482015260640161080b565b6101e08b01516001600160a01b031615613f9557613f8c8b6101e001518a6101a001518d6102000151610757565b613f9557600080fd5b6101e08901516001600160a01b031615613fcc57613fc3896101e001518a6101a001518b6102000151610757565b613fcc57600080fd5b60e089015187906001600160a01b0316613fea578960200151613ff0565b8b602001515b60e08b01516001600160a01b039182169116614010578c60200151614016565b8a602001515b604080518a8152602081018a90529081018690526001600160a01b0391909116907fc4109843e0b7d514e4c093114b863f8e7d8d9a458c372cd51bfe526b588006c99060600160405180910390a4505060018055505050505050505050565b80516000906001600160a01b0316301461409157506000919050565b6140a5826101400151836102a001516148cd565b6140b157506000919050565b600182610100015160018111156140ca576140ca6157d1565b1480156140eb5750609c548260a0015110806140eb5750609d548260c00151105b156140f857506000919050565b506001919050565b60008061412f836101200151846101400151856102400151866102600151876102800151886102a001516133ef565b9050600061415f8561012001518661014001518761024001518861026001518961028001518a6102a001516133ef565b90508181101561416e57600080fd5b60e08401516001600160a01b03166141865780610df1565b509392505050565b600054610100900460ff166110fa5760405162461bcd60e51b815260040161080b90615859565b600054610100900460ff166141dc5760405162461bcd60e51b815260040161080b90615859565b6110fa3361348a565b600054610100900460ff1661420c5760405162461bcd60e51b815260040161080b90615859565b60018055565b60006107da82846159f8565b60006107da8284615809565b60006107da82846157e7565b60006107da8284615720565b600081610200015151826101c0015151836101a00151516101b06142669190615720565b6142709190615720565b6131dd9190615720565b6000818353505060010190565b600042831080156107da57508115806107da5750504210919050565b6000806142af846132ad565b90506142bc818585613309565b6107da57600080fd5b612f47816040516024016142d99190614ab7565b60408051601f198184030181529190526020810180516001600160e01b031663104c13eb60e21b1790526148f1565b6102208101516000906001600160a01b03161561432a57341561432a57600080fd5b60006143368484614100565b905060008111801561435557506102208301516001600160a01b031615155b15614373576143738361022001518560200151856020015184614912565b60e0830151819081906001600160a01b03161561468a5785608001518560800151111561439f57600080fd5b600185610100015160018111156143b8576143b86157d1565b141561465c578560c001518560c0015111156143d357600080fd5b6060850151156144765760006143f86143f087606001518661421e565b609f5461422a565b6102208701519091506001600160a01b031661445b576144188382614212565b60e08701516040519194506001600160a01b03169082156108fc029083906000818181858888f19350505050158015614455573d6000803e3d6000fd5b50614474565b61447486610220015187602001518860e0015184614912565b505b6080850151156145115760006144936143f087608001518661421e565b6102208701519091506001600160a01b03166144f6576144b38282614236565b60e08701516040519193506001600160a01b03169082156108fc029083906000818181858888f193505050501580156144f0573d6000803e3d6000fd5b5061450f565b61450f86610220015188602001518860e0015184614912565b505b60a0850151156145b457600061452e6143f08760a001518661421e565b6102208701519091506001600160a01b031661458f5761454e8382614212565b609e546040519194506001600160a01b03169082156108fc029083906000818181858888f19350505050158015614589573d6000803e3d6000fd5b506145b2565b6102208601516020870151609e546145b29291906001600160a01b031684614912565b505b60c0850151156146575760006145d16143f08760c001518661421e565b6102208701519091506001600160a01b0316614632576145f18282614236565b609e546040519193506001600160a01b03169082156108fc029083906000818181858888f1935050505015801561462c573d6000803e3d6000fd5b50614655565b6102208601516020880151609e546146559291906001600160a01b031684614912565b505b614811565b61467385602001518660e0015187606001516149ae565b61465786602001518660e0015187608001516149ae565b84608001518660800151111561469f57600080fd5b600185610100015160018111156146b8576146b86157d1565b14156147e3576102208501516001600160a01b03166146d657600080fd5b8460c001518660c0015111156146eb57600080fd5b6060860151156147255760006147086143f088606001518661421e565b905061472386610220015188602001518960e0015184614912565b505b60808601511561475f5760006147426143f088608001518661421e565b905061475d86610220015187602001518960e0015184614912565b505b60a0860151156147a257600061477c6143f08860a001518661421e565b6102208701516020890151609e549293506147a0926001600160a01b031684614912565b505b60c0860151156146575760006147bf6143f08860c001518661421e565b6102208701516020880151609e54929350614655926001600160a01b031684614912565b6147fa86602001518760e0015188606001516149ae565b61481185602001518760e0015188608001516149ae565b6102208501516001600160a01b03166132a3578034101561483157600080fd5b84602001516001600160a01b03166108fc839081150290604051600060405180830381858888f1935050505015801561486e573d6000803e3d6000fd5b50600061487b3483614212565b905080156148c25786602001516001600160a01b03166108fc829081150290604051600060405180830381858888f193505050501580156148c0573d6000803e3d6000fd5b505b505090949350505050565b6000808360018111156148e2576148e26157d1565b14806107da5750501515919050565b80516a636f6e736f6c652e6c6f67602083016000808483855afa5050505050565b80156149a857609954604051630aed65f560e11b81526001600160a01b0386811660048301528581166024830152848116604483015260648201849052909116906315dacbea906084016020604051808303816000875af115801561497b573d6000803e3d6000fd5b505050506040513d601f19601f8201168201806040525081019061499f9190615a0f565b6149a857600080fd5b50505050565b609754610d62906001600160a01b0316848484614912565b8280546149d2906156cf565b90600052602060002090601f0160209004810192826149f45760008555614a3a565b82601f10614a0d57805160ff1916838001178555614a3a565b82800160010185558215614a3a579182015b82811115614a3a578251825591602001919060010190614a1f565b50614a46929150614a4a565b5090565b5b80821115614a465760008155600101614a4b565b60005b83811015614a7a578181015183820152602001614a62565b838111156149a85750506000910152565b60008151808452614aa3816020860160208601614a5f565b601f01601f19169290920160200192915050565b6020815260006107da6020830184614a8b565b6001600160a01b0381168114612f4757600080fd5b634e487b7160e01b600052604160045260246000fd5b600082601f830112614b0657600080fd5b81356001600160401b0380821115614b2057614b20614adf565b604051601f8301601f19908116603f01168101908282118183101715614b4857614b48614adf565b81604052838152866020858801011115614b6157600080fd5b836020870160208301376000602085830101528094505050505092915050565b600080600060608486031215614b9657600080fd5b8335614ba181614aca565b925060208401356001600160401b0380821115614bbd57600080fd5b614bc987838801614af5565b93506040860135915080821115614bdf57600080fd5b50614bec86828701614af5565b9150509250925092565b600060208284031215614c0857600080fd5b5035919050565b60008060008060808587031215614c2557600080fd5b8435614c3081614aca565b93506020850135614c4081614aca565b92506040850135614c5081614aca565b91506060850135614c6081614aca565b939692955090935050565b600080600060608486031215614c8057600080fd5b83356001600160401b0380821115614c9757600080fd5b614ca387838801614af5565b94506020860135915080821115614bbd57600080fd5b600060208284031215614ccb57600080fd5b81356107da81614aca565b600060208284031215614ce857600080fd5b81356001600160401b03811115614cfe57600080fd5b614d0a84828501614af5565b949350505050565b600082601f830112614d2357600080fd5b60405160e081018181106001600160401b0382111715614d4557614d45614adf565b6040528060e0840185811115614d5a57600080fd5b845b81811015614d7d578035614d6f81614aca565b835260209283019201614d5c565b509195945050505050565b600082601f830112614d9957600080fd5b6040516101208082018281106001600160401b0382111715614dbd57614dbd614adf565b60405283018185821115614dd057600080fd5b845b82811015614d7d578035825260209182019101614dd2565b60028110612f4757600080fd5b8035614e0281614dea565b919050565b60008060008060008060008060006102e08a8c031215614e2657600080fd5b614e308b8b614d12565b9850614e3f8b60e08c01614d88565b9750614e4e6102008b01614df7565b9650614e5d6102208b01614df7565b9550614e6c6102408b01614df7565b9450614e7b6102608b01614df7565b93506102808a01356001600160401b0380821115614e9857600080fd5b614ea48d838e01614af5565b94506102a08c0135915080821115614ebb57600080fd5b614ec78d838e01614af5565b93506102c08c0135915080821115614ede57600080fd5b50614eeb8c828d01614af5565b9150509295985092959850929598565b60008060408385031215614f0e57600080fd5b50508035926020909101359150565b60008060008060808587031215614f3357600080fd5b84356001600160401b0380821115614f4a57600080fd5b614f5688838901614af5565b95506020870135915080821115614f6c57600080fd5b614f7888838901614af5565b94506040870135915080821115614f8e57600080fd5b614f9a88838901614af5565b93506060870135915080821115614fb057600080fd5b50614fbd87828801614af5565b91505092959194509250565b803560ff81168114614e0257600080fd5b6000806000806000806000806000806000806103408d8f031215614ffd57600080fd5b6150078e8e614d12565b9b506150168e60e08f01614d88565b9a506150256102008e01614df7565b99506150346102208e01614df7565b98506150436102408e01614df7565b97506150526102608e01614df7565b96506001600160401b036102808e0135111561506d57600080fd5b61507e8e6102808f01358f01614af5565b95506001600160401b036102a08e0135111561509957600080fd5b6150aa8e6102a08f01358f01614af5565b94506001600160401b036102c08e013511156150c557600080fd5b6150d68e6102c08f01358f01614af5565b93506150e56102e08e01614fc9565b92506103008d013591506103208d013590509295989b509295989b509295989b565b60008060008060008060c0878903121561512057600080fd5b863561512b81614dea565b9550602087013561513b81614dea565b95989597505050506040840135936060810135936080820135935060a0909101359150565b600082601f83011261517157600080fd5b6040516101c08082018281106001600160401b038211171561519557615195614adf565b604052830181858211156151a857600080fd5b845b82811015614d7d5780356151bd81614aca565b8252602091820191016151aa565b600082601f8301126151dc57600080fd5b6040516102408082018281106001600160401b0382111715614dbd57614dbd614adf565b600082601f83011261521157600080fd5b6040516101008082018281106001600160401b038211171561523557615235614adf565b6040528301818582111561524857600080fd5b845b82811015614d7d5761525b81614fc9565b82526020918201910161524a565b60008060008060008060008060006105c08a8c03121561528857600080fd5b6152928b8b615160565b98506152a28b6101c08c016151cb565b97506152b28b6104008c01615200565b96506105008a01356001600160401b03808211156152cf57600080fd5b6152db8d838e01614af5565b97506105208c01359150808211156152f257600080fd5b6152fe8d838e01614af5565b96506105408c013591508082111561531557600080fd5b6153218d838e01614af5565b95506105608c013591508082111561533857600080fd5b6153448d838e01614af5565b94506105808c013591508082111561535b57600080fd5b6153678d838e01614af5565b93506105a08c0135915080821115614ede57600080fd5b8015158114612f4757600080fd5b8035614e028161537e565b6000806000806000806000806000806103008b8d0312156153b757600080fd5b6153c18c8c614d12565b99506153d08c60e08d01614d88565b98506153df6102008c01614df7565b97506153ee6102208c01614df7565b96506153fd6102408c01614df7565b955061540c6102608c01614df7565b94506102808b01356001600160401b038082111561542957600080fd5b6154358e838f01614af5565b95506102a08d013591508082111561544c57600080fd5b6154588e838f01614af5565b94506102c08d013591508082111561546f57600080fd5b5061547c8d828e01614af5565b92505061548c6102e08c0161538c565b90509295989b9194979a5092959850565b600082601f8301126154ae57600080fd5b604051604081018181106001600160401b03821117156154d0576154d0614adf565b80604052508060408401858111156154e757600080fd5b845b81811015614d7d576154fa81614fc9565b8352602092830192016154e9565b600082601f83011261551957600080fd5b60405160a081018181106001600160401b038211171561553b5761553b614adf565b6040528060a084018581111561555057600080fd5b845b81811015614d7d578035835260209283019201615552565b60008060008060008060008060008060006106a08c8e03121561558c57600080fd5b6155968d8d615160565b9a506155a68d6101c08e016151cb565b99506155b68d6104008e01615200565b98506001600160401b03806105008e013511156155d257600080fd5b6155e38e6105008f01358f01614af5565b9850806105208e013511156155f757600080fd5b6156088e6105208f01358f01614af5565b9750806105408e0135111561561c57600080fd5b61562d8e6105408f01358f01614af5565b9650806105608e0135111561564157600080fd5b6156528e6105608f01358f01614af5565b9550806105808e0135111561566657600080fd5b6156778e6105808f01358f01614af5565b9450806105a08e0135111561568b57600080fd5b5061569d8d6105a08e01358e01614af5565b92506156ad8d6105c08e0161549d565b91506156bd8d6106008e01615508565b90509295989b509295989b9093969950565b600181811c908216806156e357607f821691505b6020821081141561570457634e487b7160e01b600052602260045260246000fd5b50919050565b634e487b7160e01b600052601160045260246000fd5b600082198211156157335761573361570a565b500190565b6020808252818101527f4f776e61626c653a2063616c6c6572206973206e6f7420746865206f776e6572604082015260600190565b6020808252602e908201527f496e697469616c697a61626c653a20636f6e747261637420697320616c72656160408201526d191e481a5b9a5d1a585b1a5e995960921b606082015260800190565b634e487b7160e01b600052603260045260246000fd5b634e487b7160e01b600052602160045260246000fd5b60008261580457634e487b7160e01b600052601260045260246000fd5b500490565b60008160001904831182151516156158235761582361570a565b500290565b634e487b7160e01b600052600160045260246000fd5b60006000198214156158525761585261570a565b5060010190565b6020808252602b908201527f496e697469616c697a61626c653a20636f6e7472616374206973206e6f74206960408201526a6e697469616c697a696e6760a81b606082015260800190565b60028110612f4757634e487b7160e01b600052602160045260246000fd5b6001600160a01b038b811682528a81166020830152604082018a9052606082018990526080820188905260a08201879052610140820190615902876158a4565b8660c0840152615911866158a4565b8560e0840152615920856158a4565b84610100840152808416610120840152509b9a5050505050505050505050565b600061018061594e8f6158a4565b8e83528060208401526159638184018f614a8b565b90508281036040840152615977818e614a8b565b6001600160a01b038d81166060860152848203608086015290915061599c828d614a8b565b9a1660a0840152505060c081019690965260e086019490945261010085019290925261012084015261014083015215156101609091015295945050505050565b600082516159ee818460208701614a5f565b9190910192915050565b600082821015615a0a57615a0a61570a565b500390565b600060208284031215615a2157600080fd5b81516107da8161537e56fea2646970667358221220535f106b69ca72ba3f3045d3dfdc4f6af05eed6e65fdf310a24cb993f3f749e264736f6c634300080b0033",
  "linkReferences": {},
  "deployedLinkReferences": {}
}